{
  "contractName": "TokenLock",
  "abi": [
    {
      "inputs": [
        {
          "internalType": "contract ERC20",
          "name": "_token",
          "type": "address"
        }
      ],
      "stateMutability": "nonpayable",
      "type": "constructor"
    },
    {
      "anonymous": false,
      "inputs": [
        {
          "indexed": true,
          "internalType": "address",
          "name": "recipient",
          "type": "address"
        }
      ],
      "name": "GateAdded",
      "type": "event"
    },
    {
      "anonymous": false,
      "inputs": [
        {
          "indexed": false,
          "internalType": "address",
          "name": "recipient",
          "type": "address"
        },
        {
          "indexed": false,
          "internalType": "uint256",
          "name": "amountVested",
          "type": "uint256"
        },
        {
          "indexed": false,
          "internalType": "uint256",
          "name": "amountNotVested",
          "type": "uint256"
        }
      ],
      "name": "GateRevoked",
      "type": "event"
    },
    {
      "anonymous": false,
      "inputs": [
        {
          "indexed": true,
          "internalType": "address",
          "name": "recipient",
          "type": "address"
        },
        {
          "indexed": false,
          "internalType": "uint256",
          "name": "amountClaimed",
          "type": "uint256"
        }
      ],
      "name": "GateTokensClaimed",
      "type": "event"
    },
    {
      "anonymous": false,
      "inputs": [
        {
          "indexed": true,
          "internalType": "address",
          "name": "previousOwner",
          "type": "address"
        },
        {
          "indexed": true,
          "internalType": "address",
          "name": "newOwner",
          "type": "address"
        }
      ],
      "name": "OwnershipTransferred",
      "type": "event"
    },
    {
      "inputs": [],
      "name": "owner",
      "outputs": [
        {
          "internalType": "address",
          "name": "",
          "type": "address"
        }
      ],
      "stateMutability": "view",
      "type": "function",
      "constant": true
    },
    {
      "inputs": [],
      "name": "renounceOwnership",
      "outputs": [],
      "stateMutability": "nonpayable",
      "type": "function"
    },
    {
      "inputs": [],
      "name": "token",
      "outputs": [
        {
          "internalType": "contract ERC20",
          "name": "",
          "type": "address"
        }
      ],
      "stateMutability": "view",
      "type": "function",
      "constant": true
    },
    {
      "inputs": [],
      "name": "totalVestingCount",
      "outputs": [
        {
          "internalType": "uint256",
          "name": "",
          "type": "uint256"
        }
      ],
      "stateMutability": "view",
      "type": "function",
      "constant": true
    },
    {
      "inputs": [
        {
          "internalType": "address",
          "name": "newOwner",
          "type": "address"
        }
      ],
      "name": "transferOwnership",
      "outputs": [],
      "stateMutability": "nonpayable",
      "type": "function"
    },
    {
      "inputs": [
        {
          "internalType": "address",
          "name": "_recipient",
          "type": "address"
        },
        {
          "internalType": "uint256",
          "name": "_amount",
          "type": "uint256"
        },
        {
          "internalType": "uint16",
          "name": "_DurationInDays",
          "type": "uint16"
        },
        {
          "internalType": "uint16",
          "name": "_vestingCliffInDays",
          "type": "uint16"
        }
      ],
      "name": "addTokenGate",
      "outputs": [],
      "stateMutability": "nonpayable",
      "type": "function"
    },
    {
      "inputs": [],
      "name": "claimVestedTokens",
      "outputs": [],
      "stateMutability": "nonpayable",
      "type": "function"
    },
    {
      "inputs": [
        {
          "internalType": "address",
          "name": "_recipient",
          "type": "address"
        }
      ],
      "name": "revokeTokenRelease",
      "outputs": [],
      "stateMutability": "nonpayable",
      "type": "function"
    },
    {
      "inputs": [
        {
          "internalType": "address",
          "name": "_recipient",
          "type": "address"
        }
      ],
      "name": "getGateStartTime",
      "outputs": [
        {
          "internalType": "uint256",
          "name": "",
          "type": "uint256"
        }
      ],
      "stateMutability": "view",
      "type": "function",
      "constant": true
    },
    {
      "inputs": [
        {
          "internalType": "address",
          "name": "_recipient",
          "type": "address"
        }
      ],
      "name": "getGateAmount",
      "outputs": [
        {
          "internalType": "uint256",
          "name": "",
          "type": "uint256"
        }
      ],
      "stateMutability": "view",
      "type": "function",
      "constant": true
    }
  ],
  "bytecode": "0x60806040523480156200001157600080fd5b5060405162001dbf38038062001dbf833981810160405281019062000037919062000189565b6000620000496200016a60201b60201c565b9050806000806101000a81548173ffffffffffffffffffffffffffffffffffffffff021916908373ffffffffffffffffffffffffffffffffffffffff1602179055508073ffffffffffffffffffffffffffffffffffffffff16600073ffffffffffffffffffffffffffffffffffffffff167f8be0079c531659141344cd1fd0a4f28419497f9722a3daafe3b4186f6b6457e060405160405180910390a350600073ffffffffffffffffffffffffffffffffffffffff168173ffffffffffffffffffffffffffffffffffffffff1614156200012257600080fd5b80600160006101000a81548173ffffffffffffffffffffffffffffffffffffffff021916908373ffffffffffffffffffffffffffffffffffffffff1602179055505062000217565b600033905090565b6000815190506200018381620001fd565b92915050565b6000602082840312156200019c57600080fd5b6000620001ac8482850162000172565b91505092915050565b6000620001c282620001dd565b9050919050565b6000620001d682620001b5565b9050919050565b600073ffffffffffffffffffffffffffffffffffffffff82169050919050565b6200020881620001c9565b81146200021457600080fd5b50565b611b9880620002276000396000f3fe608060405234801561001057600080fd5b506004361061009e5760003560e01c806399d508c01161006657806399d508c014610133578063daef37fd14610151578063e74f3fbb14610181578063f2fde38b1461018b578063fc0c546a146101a75761009e565b806317d20874146100a3578063202b1c3b146100bf5780636a73faa7146100db578063715018a61461010b5780638da5cb5b14610115575b600080fd5b6100bd60048036038101906100b89190611346565b6101c5565b005b6100d960048036038101906100d4919061136f565b610524565b005b6100f560048036038101906100f09190611346565b610987565b60405161010291906118a1565b60405180910390f35b6101136109d8565b005b61011d610b12565b60405161012a91906116b4565b60405180910390f35b61013b610b3b565b60405161014891906118a1565b60405180910390f35b61016b60048036038101906101669190611346565b610b41565b60405161017891906118a1565b60405180910390f35b610189610b92565b005b6101a560048036038101906101a09190611346565b610e1f565b005b6101af610fc8565b6040516101bc9190611766565b60405180910390f35b6101cd610fee565b73ffffffffffffffffffffffffffffffffffffffff166101eb610b12565b73ffffffffffffffffffffffffffffffffffffffff1614610241576040517f08c379a000000000000000000000000000000000000000000000000000000000815260040161023890611801565b60405180910390fd5b6000600260008373ffffffffffffffffffffffffffffffffffffffff1673ffffffffffffffffffffffffffffffffffffffff168152602001908152602001600020905060008061029084610ff6565b809250819350505060006102c7826102b9866003015487600101546111d190919063ffffffff16565b6111d190919063ffffffff16565b9050600160009054906101000a900473ffffffffffffffffffffffffffffffffffffffff1673ffffffffffffffffffffffffffffffffffffffff1663a9059cbb61030f610b12565b836040518363ffffffff1660e01b815260040161032d929190611706565b602060405180830381600087803b15801561034757600080fd5b505af115801561035b573d6000803e3d6000fd5b505050506040513d601f19601f8201168201806040525081019061037f91906113d2565b61038857600080fd5b600160009054906101000a900473ffffffffffffffffffffffffffffffffffffffff1673ffffffffffffffffffffffffffffffffffffffff1663a9059cbb86846040518363ffffffff1660e01b81526004016103e5929190611706565b602060405180830381600087803b1580156103ff57600080fd5b505af1158015610413573d6000803e3d6000fd5b505050506040513d601f19601f8201168201806040525081019061043791906113d2565b61044057600080fd5b600084600001819055506000846001018190555060008460020160006101000a81548161ffff021916908361ffff16021790555060008460020160026101000a81548161ffff021916908361ffff1602179055506000846003018190555060008460040160006101000a81548173ffffffffffffffffffffffffffffffffffffffff021916908373ffffffffffffffffffffffffffffffffffffffff1602179055507fdbb952fdbbbb5fd2e64fb9545b75b9fa295cb55a4ac343abca3d25d7e737345d8583836040516105159392919061172f565b60405180910390a15050505050565b61052c610fee565b73ffffffffffffffffffffffffffffffffffffffff1661054a610b12565b73ffffffffffffffffffffffffffffffffffffffff16146105a0576040517f08c379a000000000000000000000000000000000000000000000000000000000815260040161059790611801565b60405180910390fd5b6000600260008673ffffffffffffffffffffffffffffffffffffffff1673ffffffffffffffffffffffffffffffffffffffff1681526020019081526020016000206001015414610625576040517f08c379a000000000000000000000000000000000000000000000000000000000815260040161061c906117e1565b60405180910390fd5b60038161ffff16111561066d576040517f08c379a000000000000000000000000000000000000000000000000000000000815260040161066490611841565b60405180910390fd5b600a8261ffff1611156106b5576040517f08c379a00000000000000000000000000000000000000000000000000000000081526004016106ac906117a1565b60405180910390fd5b60006106ce8361ffff168561121e90919063ffffffff16565b905060008111610713576040517f08c379a000000000000000000000000000000000000000000000000000000000815260040161070a906117c1565b60405180910390fd5b600160009054906101000a900473ffffffffffffffffffffffffffffffffffffffff1673ffffffffffffffffffffffffffffffffffffffff166323b872dd610759610b12565b30876040518463ffffffff1660e01b8152600401610779939291906116cf565b602060405180830381600087803b15801561079357600080fd5b505af11580156107a7573d6000803e3d6000fd5b505050506040513d601f19601f820116820180604052508101906107cb91906113d2565b6107d457600080fd5b60006040518060c00160405280620151808561ffff166107f49190611954565b62ffffff16610801611234565b61080b91906118cd565b81526020018681526020018561ffff168152602001600061ffff168152602001600081526020018773ffffffffffffffffffffffffffffffffffffffff16815250905080600260008873ffffffffffffffffffffffffffffffffffffffff1673ffffffffffffffffffffffffffffffffffffffff168152602001908152602001600020600082015181600001556020820151816001015560408201518160020160006101000a81548161ffff021916908361ffff16021790555060608201518160020160026101000a81548161ffff021916908361ffff1602179055506080820151816003015560a08201518160040160006101000a81548173ffffffffffffffffffffffffffffffffffffffff021916908373ffffffffffffffffffffffffffffffffffffffff1602179055509050508573ffffffffffffffffffffffffffffffffffffffff167faef3111f8c33136698c26c04dfacf225743d25ff7fd6b3a47b616ea7193441b760405160405180910390a2505050505050565b600080600260008473ffffffffffffffffffffffffffffffffffffffff1673ffffffffffffffffffffffffffffffffffffffff16815260200190815260200160002090508060010154915050919050565b6109e0610fee565b73ffffffffffffffffffffffffffffffffffffffff166109fe610b12565b73ffffffffffffffffffffffffffffffffffffffff1614610a54576040517f08c379a0000000000000000000000000000000000000000000000000000000008152600401610a4b90611801565b60405180910390fd5b600073ffffffffffffffffffffffffffffffffffffffff1660008054906101000a900473ffffffffffffffffffffffffffffffffffffffff1673ffffffffffffffffffffffffffffffffffffffff167f8be0079c531659141344cd1fd0a4f28419497f9722a3daafe3b4186f6b6457e060405160405180910390a360008060006101000a81548173ffffffffffffffffffffffffffffffffffffffff021916908373ffffffffffffffffffffffffffffffffffffffff160217905550565b60008060009054906101000a900473ffffffffffffffffffffffffffffffffffffffff16905090565b60035481565b600080600260008473ffffffffffffffffffffffffffffffffffffffff1673ffffffffffffffffffffffffffffffffffffffff16815260200190815260200160002090508060000154915050919050565b600080610b9e33610ff6565b809250819350505060008111610be9576040517f08c379a0000000000000000000000000000000000000000000000000000000008152600401610be090611861565b60405180910390fd5b6000600260003373ffffffffffffffffffffffffffffffffffffffff1673ffffffffffffffffffffffffffffffffffffffff1681526020019081526020016000209050610c598361ffff168260020160029054906101000a900461ffff1661ffff1661123c90919063ffffffff16565b8160020160026101000a81548161ffff021916908361ffff160217905550610c8e82826003015461123c90919063ffffffff16565b8160030181905550600160009054906101000a900473ffffffffffffffffffffffffffffffffffffffff1673ffffffffffffffffffffffffffffffffffffffff1663a9059cbb8260040160009054906101000a900473ffffffffffffffffffffffffffffffffffffffff16846040518363ffffffff1660e01b8152600401610d17929190611706565b602060405180830381600087803b158015610d3157600080fd5b505af1158015610d45573d6000803e3d6000fd5b505050506040513d601f19601f82011682018060405250810190610d6991906113d2565b610da8576040517f08c379a0000000000000000000000000000000000000000000000000000000008152600401610d9f90611821565b60405180910390fd5b8060040160009054906101000a900473ffffffffffffffffffffffffffffffffffffffff1673ffffffffffffffffffffffffffffffffffffffff167fbf2f4bf7dd61dd713f43b7b282ad76663ca54e146184a88bb5c3bda314fe83f583604051610e1291906118a1565b60405180910390a2505050565b610e27610fee565b73ffffffffffffffffffffffffffffffffffffffff16610e45610b12565b73ffffffffffffffffffffffffffffffffffffffff1614610e9b576040517f08c379a0000000000000000000000000000000000000000000000000000000008152600401610e9290611801565b60405180910390fd5b600073ffffffffffffffffffffffffffffffffffffffff168173ffffffffffffffffffffffffffffffffffffffff161415610f0b576040517f08c379a0000000000000000000000000000000000000000000000000000000008152600401610f0290611781565b60405180910390fd5b8073ffffffffffffffffffffffffffffffffffffffff1660008054906101000a900473ffffffffffffffffffffffffffffffffffffffff1673ffffffffffffffffffffffffffffffffffffffff167f8be0079c531659141344cd1fd0a4f28419497f9722a3daafe3b4186f6b6457e060405160405180910390a3806000806101000a81548173ffffffffffffffffffffffffffffffffffffffff021916908373ffffffffffffffffffffffffffffffffffffffff16021790555050565b600160009054906101000a900473ffffffffffffffffffffffffffffffffffffffff1681565b600033905090565b6000806000600260008573ffffffffffffffffffffffffffffffffffffffff1673ffffffffffffffffffffffffffffffffffffffff16815260200190815260200160002090508060010154816003015410611086576040517f08c379a000000000000000000000000000000000000000000000000000000000815260040161107d90611881565b60405180910390fd5b8060000154611093611234565b10156110a65760008092509250506111cc565b60006110e9620151806110db6201518085600001546110c591906119eb565b6110cd611234565b6111d190919063ffffffff16565b61121e90919063ffffffff16565b90508160020160009054906101000a900461ffff1661ffff168110611147576000611125836003015484600101546111d190919063ffffffff16565b90508260020160009054906101000a900461ffff1681945094505050506111cc565b60006111728360020160029054906101000a900461ffff1661ffff16836111d190919063ffffffff16565b905060006111a38460020160009054906101000a900461ffff1661ffff16856001015461121e90919063ffffffff16565b905060006111be828461ffff1661128990919063ffffffff16565b905082819650965050505050505b915091565b60008282111561120a577f4e487b7100000000000000000000000000000000000000000000000000000000600052600160045260246000fd5b818361121691906119eb565b905092915050565b6000818361122c9190611923565b905092915050565b600042905090565b6000818361124a91906118cd565b905082811015611283577f4e487b7100000000000000000000000000000000000000000000000000000000600052600160045260246000fd5b92915050565b60008083141561129c57600090506112ec565b81836112a89190611991565b90508183826112b79190611923565b146112eb577f4e487b7100000000000000000000000000000000000000000000000000000000600052600160045260246000fd5b5b92915050565b60008135905061130181611b06565b92915050565b60008151905061131681611b1d565b92915050565b60008135905061132b81611b34565b92915050565b60008135905061134081611b4b565b92915050565b60006020828403121561135857600080fd5b6000611366848285016112f2565b91505092915050565b6000806000806080858703121561138557600080fd5b6000611393878288016112f2565b94505060206113a487828801611331565b93505060406113b58782880161131c565b92505060606113c68782880161131c565b91505092959194509250565b6000602082840312156113e457600080fd5b60006113f284828501611307565b91505092915050565b61140481611a1f565b82525050565b61141381611a84565b82525050565b60006114266026836118bc565b91507f4f776e61626c653a206e6577206f776e657220697320746865207a65726f206160008301527f64647265737300000000000000000000000000000000000000000000000000006020830152604082019050919050565b600061148c601d836118bc565b91507f4475726174696f6e2067726561746572207468616e20313020646179730000006000830152602082019050919050565b60006114cc6016836118bc565b91507f616d6f756e74566573746564506572446179203e2030000000000000000000006000830152602082019050919050565b600061150c6027836118bc565b91507f4761746520616c7265616479206578697374732c206d757374207265766f6b6560008301527f2066697273742e000000000000000000000000000000000000000000000000006020830152604082019050919050565b60006115726020836118bc565b91507f4f776e61626c653a2063616c6c6572206973206e6f7420746865206f776e65726000830152602082019050919050565b60006115b26009836118bc565b91507f6e6f20746f6b656e7300000000000000000000000000000000000000000000006000830152602082019050919050565b60006115f26019836118bc565b91507f436c6966662067726561746572207468616e20332064617973000000000000006000830152602082019050919050565b6000611632600b836118bc565b91507f56657374656420697320300000000000000000000000000000000000000000006000830152602082019050919050565b60006116726015836118bc565b91507f52656c656173652066756c6c7920636c61696d656400000000000000000000006000830152602082019050919050565b6116ae81611a7a565b82525050565b60006020820190506116c960008301846113fb565b92915050565b60006060820190506116e460008301866113fb565b6116f160208301856113fb565b6116fe60408301846116a5565b949350505050565b600060408201905061171b60008301856113fb565b61172860208301846116a5565b9392505050565b600060608201905061174460008301866113fb565b61175160208301856116a5565b61175e60408301846116a5565b949350505050565b600060208201905061177b600083018461140a565b92915050565b6000602082019050818103600083015261179a81611419565b9050919050565b600060208201905081810360008301526117ba8161147f565b9050919050565b600060208201905081810360008301526117da816114bf565b9050919050565b600060208201905081810360008301526117fa816114ff565b9050919050565b6000602082019050818103600083015261181a81611565565b9050919050565b6000602082019050818103600083015261183a816115a5565b9050919050565b6000602082019050818103600083015261185a816115e5565b9050919050565b6000602082019050818103600083015261187a81611625565b9050919050565b6000602082019050818103600083015261189a81611665565b9050919050565b60006020820190506118b660008301846116a5565b92915050565b600082825260208201905092915050565b60006118d882611a7a565b91506118e383611a7a565b9250827fffffffffffffffffffffffffffffffffffffffffffffffffffffffffffffffff0382111561191857611917611aa8565b5b828201905092915050565b600061192e82611a7a565b915061193983611a7a565b92508261194957611948611ad7565b5b828204905092915050565b600061195f82611a6b565b915061196a83611a6b565b92508162ffffff048311821515161561198657611985611aa8565b5b828202905092915050565b600061199c82611a7a565b91506119a783611a7a565b9250817fffffffffffffffffffffffffffffffffffffffffffffffffffffffffffffffff04831182151516156119e0576119df611aa8565b5b828202905092915050565b60006119f682611a7a565b9150611a0183611a7a565b925082821015611a1457611a13611aa8565b5b828203905092915050565b6000611a2a82611a4b565b9050919050565b60008115159050919050565b600061ffff82169050919050565b600073ffffffffffffffffffffffffffffffffffffffff82169050919050565b600062ffffff82169050919050565b6000819050919050565b6000611a8f82611a96565b9050919050565b6000611aa182611a4b565b9050919050565b7f4e487b7100000000000000000000000000000000000000000000000000000000600052601160045260246000fd5b7f4e487b7100000000000000000000000000000000000000000000000000000000600052601260045260246000fd5b611b0f81611a1f565b8114611b1a57600080fd5b50565b611b2681611a31565b8114611b3157600080fd5b50565b611b3d81611a3d565b8114611b4857600080fd5b50565b611b5481611a7a565b8114611b5f57600080fd5b5056fea26469706673582212207b2ee62bff0ffa51cbe9c53b36cff1b68df426e4996d8762cae26edb025fcf1064736f6c63430008000033",
  "immutableReferences": {},
  "source": "// SPDX-License-Identifier: MIT\npragma solidity ^0.8.0;\n\nimport \"./ERC20.sol\";\nimport \"./SafeMath.sol\";\nimport \"./Ownable.sol\";\n\ncontract TokenLock is Ownable {\n    using SafeMath for uint256;\n    using SafeMath for uint16;\n\n    struct TokenGate {\n        uint256 startTime;\n        uint256 amount;\n        uint16 Duration;\n        uint16 daysClaimed;\n        uint256 totalClaimed;\n        address recipient;\n    }\n\n    event GateAdded(address indexed recipient);\n    event GateTokensClaimed(address indexed recipient, uint256 amountClaimed);\n    event GateRevoked(address recipient, uint256 amountVested, uint256 amountNotVested);\n\n    ERC20 public token;\n    \n    mapping (address => TokenGate) private ReleaseAddresses;\n\n    uint256 public totalVestingCount;\n\n    constructor(ERC20 _token) {\n        require(address(_token) != address(0));\n        token = _token;\n    }\n    \n    function addTokenGate(\n        address _recipient,\n        uint256 _amount,\n        uint16 _DurationInDays,\n        uint16 _vestingCliffInDays    \n    ) \n        external\n        onlyOwner\n    {\n        require(ReleaseAddresses[_recipient].amount == 0, \"Gate already exists, must revoke first.\");\n        require(_vestingCliffInDays <= 3, \"Cliff greater than 3 days\");\n        require(_DurationInDays <= 10, \"Duration greater than 10 days\");\n        \n        uint256 amountVestedPerDay = _amount.div(_DurationInDays);\n        require(amountVestedPerDay > 0, \"amountVestedPerDay > 0\");\n\n        // Transfer the gated tokens under the control of the vesting contract\n        require(token.transferFrom(owner(), address(this), _amount));\n\n        TokenGate memory releaseaddress = TokenGate({\n            startTime: currentTime() + _vestingCliffInDays * 1 days,\n            amount: _amount,\n            Duration: _DurationInDays,\n            daysClaimed: 0,\n            totalClaimed: 0,\n            recipient: _recipient\n        });\n        ReleaseAddresses[_recipient] = releaseaddress;\n        emit GateAdded(_recipient);\n    }\n\n    /// @notice Allows the releaseaddress to claim the contract's vested tokens. Errors if no tokens have vested\n    function claimVestedTokens() external {\n        uint16 daysVested;\n        uint256 amountVested;\n        (daysVested, amountVested) = calculateTokenClaim(msg.sender);\n        require(amountVested > 0, \"Vested is 0\");\n\n        TokenGate storage tokenRelease = ReleaseAddresses[msg.sender];\n        tokenRelease.daysClaimed = uint16(tokenRelease.daysClaimed.add(daysVested));\n        tokenRelease.totalClaimed = uint256(tokenRelease.totalClaimed.add(amountVested));\n        \n        require(token.transfer(tokenRelease.recipient, amountVested), \"no tokens\");\n        emit GateTokensClaimed(tokenRelease.recipient, amountVested);\n    }\n\n    /// @notice Terminate token Timelock transferring all vested tokens to the `_recipient`\n    /// and returning all non-vested tokens to the contract owner\n    /// Secured to the contract owner only\n    /// @param _recipient address of the tokenRelease recipient\n    function revokeTokenRelease(address _recipient) \n        external \n        onlyOwner\n    {\n        TokenGate storage tokenRelease = ReleaseAddresses[_recipient];\n        uint16 daysVested;\n        uint256 amountVested;\n        (daysVested, amountVested) = calculateTokenClaim(_recipient);\n\n        uint256 amountNotVested = (tokenRelease.amount.sub(tokenRelease.totalClaimed)).sub(amountVested);\n\n        require(token.transfer(owner(), amountNotVested));\n        require(token.transfer(_recipient, amountVested));\n\n        tokenRelease.startTime = 0;\n        tokenRelease.amount = 0;\n        tokenRelease.Duration = 0;\n        tokenRelease.daysClaimed = 0;\n        tokenRelease.totalClaimed = 0;\n        tokenRelease.recipient = address(0);\n\n        emit GateRevoked(_recipient, amountVested, amountNotVested);\n    }\n\n    function getGateStartTime(address _recipient) public view returns(uint256) {\n        TokenGate storage tokenRelease = ReleaseAddresses[_recipient];\n        return tokenRelease.startTime;\n    }\n\n    function getGateAmount(address _recipient) public view returns(uint256) {\n        TokenGate storage tokenRelease = ReleaseAddresses[_recipient];\n        return tokenRelease.amount;\n    }\n\n    /// @notice Calculate the vested and unclaimed months and tokens available for `_releaseaddress` to claim\n    /// Due to rounding errors once gate duration is reached, returns the entire left gate amount\n    /// Returns (0, 0) if cliff has not been reached\n    function calculateTokenClaim(address _recipient) private view returns (uint16, uint256) {\n        TokenGate storage tokenRelease = ReleaseAddresses[_recipient];\n\n        require(tokenRelease.totalClaimed < tokenRelease.amount, \"Release fully claimed\");\n\n        // For gatess created with a future start date, that hasn't been reached, return 0, 0\n        if (currentTime() < tokenRelease.startTime) {\n            return (0, 0);\n        }\n\n        // Check cliff was reached\n        uint elapsedDays = currentTime().sub(tokenRelease.startTime - 1 days).div(1 days);\n\n        // If over vesting duration, all tokens vested\n        if (elapsedDays >= tokenRelease.Duration) {\n            uint256 remainingTokens = tokenRelease.amount.sub(tokenRelease.totalClaimed);\n            return (tokenRelease.Duration, remainingTokens);\n        } else {\n            uint16 daysVested = uint16(elapsedDays.sub(tokenRelease.daysClaimed));\n            uint256 amountVestedPerDay = tokenRelease.amount.div(uint256(tokenRelease.Duration));\n            uint256 amountVested = uint256(daysVested.mul(amountVestedPerDay));\n            return (daysVested, amountVested);\n        }\n    }\n\n    function currentTime() private view returns(uint256) {\n        return block.timestamp;\n    }\n}",
  "sourcePath": "/home/rtc/Eth/IMT_with_TokenLock/TokenLock/contracts/TokenLock.sol",
  "compiler": {
    "name": "solc",
    "version": "0.8.0+commit.c7dfd78e.Emscripten.clang"
  },
  "schemaVersion": "3.3.4",
  "updatedAt": "2021-04-08T09:41:32.935Z",
  "networkType": "ethereum",
  "devdoc": {
    "kind": "dev",
    "methods": {
      "owner()": {
        "details": "Returns the address of the current owner."
      },
      "renounceOwnership()": {
        "details": "Leaves the contract without owner. It will not be possible to call `onlyOwner` functions anymore. Can only be called by the current owner. NOTE: Renouncing ownership will leave the contract without an owner, thereby removing any functionality that is only available to the owner."
      },
      "revokeTokenRelease(address)": {
        "params": {
          "_recipient": "address of the tokenRelease recipient"
        }
      },
      "transferOwnership(address)": {
        "details": "Transfers ownership of the contract to a new account (`newOwner`). Can only be called by the current owner."
      }
    },
    "version": 1
  },
  "userdoc": {
    "kind": "user",
    "methods": {
      "claimVestedTokens()": {
        "notice": "Allows the releaseaddress to claim the contract's vested tokens. Errors if no tokens have vested"
      },
      "revokeTokenRelease(address)": {
        "notice": "Terminate token Timelock transferring all vested tokens to the `_recipient` and returning all non-vested tokens to the contract owner Secured to the contract owner only"
      }
    },
    "version": 1
  }
}